:070003002020002D003A004F
:10060B00120407E520FB7A00750C027D017F0112B5
:10061B00086BE521FB7A00750C027D047F01120843
:10062B006BE522FB7A00750C027D077F0112086BCC
:10063B00E523FB7A00750C027D017F0212086BE546
:10064B0024FB7A00750C027D047F0212086BE525F2
:0D065B00FB7A00750C027D077F0202086B20
:10000E00E518B4020B0515E51575F0068485F01597
:10001E00E518640360030200D174202515F806E587
:10002E0020D394634003E4F520E521D3940C4003E0
:10003E00752101E52164016023E5216403601DE55E
:10004E002164056017E52164066011E521640860EE
:10005E000BE521640A6005E521B40C0AE522D39470
:10006E001F4003752201E52164046011E521640738
:10007E00600BE52164096005E521B40B0AE522D386
:10008E00941E4003752201E521B40219E5205403A4
:10009E007009E522D3941D400C8007E522D3941CF1
:1000AE004003752201E523D394174003E4F523E5BD
:1000BE0024D3943B4003E4F524E525D3943B40033D
:1000CE00E4F525E5186404600302019374202515F8
:1000DE00F816E520D394635004E520700375206371
:1000EE00E521D3940C5004E521700375210CE52114
:1000FE0064016023E5216403601DE521640560173A
:10010E00E52164066011E5216408600BE521640AAF
:10011E006005E521B40C0EE522D3941F5004E522B0
:10012E00700375221FE52164046011E521640760E8
:10013E000BE52164096005E521B40B0AE522D39491
:10014E001E400375221EE521B4021CE520540370E7
:10015E000CE522D3941D400F75221D800AE522D393
:10016E00941C400375221CE523D39417400375237A
:10017E0017E524D3943B400375243BE525D3943BEC
:10018E00400375253BE515FB7A00750C017D0C7F50
:10019E000212086BE5157013E517700F7BFF7A00DE
:1001AE0079037D017F0112082A800FE520FB7A007A
:1001BE00750C027D017F0112086BE515B40113E584
:1001CE0017700F7BFF7A0079037D047F0112082AD6
:1001DE00800FE521FB7A00750C027D047F01120869
:1001EE006BE515B40213E517700F7BFF7A007903E8
:1001FE007D077F0112082A800FE522FB7A00750C1D
:10020E00027D077F0112086BE515B40313E5177025
:10021E000F7BFF7A0079037D017F0212082A800F7F
:10022E00E523FB7A00750C027D017F0212086BE557
:10023E0015B40413E517700F7BFF7A0079037D0464
:10024E007F0212082A800FE524FB7A00750C027DCE
:10025E00047F0212086BE515B40511E517700D7BCE
:10026E00FF7A0079037D077F0202082AE525FB7AD3
:0C027E0000750C027D077F0212086B2245
:100599001208E012092612028A1208887BFF7A00E3
:1005A90079067D037F0112082A7BFF7A0079067D8F
:1005B900067F0112082A7BFF7A0079087D037F02F2
:1005C90012082A7BFF7A0079087D067F0212082A21
:1005D9001209208F18E518B40116E516700775166B
:1005E90001F515800BE516B40106E4F51612028A29
:1005F900E5161460080470D812060B80D312000E99
:0206090080CEA1
:03000B00020520CB
:10052000C0E0C0F0C083C082C0D075D000C000C0A1
:0D05300001C002C003C004C005C006C00722
:10053D00758A18758CFC0512E512700205110514EB
:10054D00E51470020513C3E51294F4E5119401400E
:10055D0012751100751200E51770047F0180027F7E
:10056D00008F17C3E5129414E51194004003120790
:01057D0086F7
:10057E00D007D006D005D004D003D002D001D000D1
:0B058E00D0D0D082D083D0F0D0E0327B
:0809170006201704120A083B38
:05092600C2B5C2B622BB
:0606680025F0FDEC3EFC54
:06066E008C088D09AB07AA
:10067400E4FDD2B574017E00A805088005C333CE1D
:1006840033CED8F9FFEBF582EF558224FF92B4D232
:10069400B6C2B60DBD08DDE4FD74017E00A80508F0
:1006A4008005C333CE33CED8F9FFE5085EFEE509F5
:1006B4005F4E24FF92B4D2B6C2B60DBD08DBC2B5FC
:0106C4002213
:0206C500AD077F
:1006C700E4F9430501D2B5FB74017E00A803088055
:1006D70005C333CE33CED8F9FFEDF582EF5582242B
:1006E700FF92B4C2B6D2B60BBB08DDE4FBD2B6C2EA
:1006F700B630B40D7401A803088002C333D8FC4296
:0B070700010BBB08E8C2B5C2B4AF0193
:0107120022C4
:10028A00E4FDFC7F8E12066EE52075F00A8475F097
:10029A0010A4FFAEF0E52075F00A84EF7F8C1206F9
:1002AA0068E52175F00A8475F010A4FFAEF0E52127
:1002BA0075F00A847C00EF7F88120668E52275F0E3
:1002CA000A8475F010A4FFAEF0E52275F00A847C6A
:1002DA0000EF25F0FDEC3EFC7F8612066EE52375E5
:1002EA00F00A8475F010A4FFAEF0E52375F00A84D5
:1002FA007C00EF25F0FDEC3EFC7F8412066EE524BF
:10030A0075F00A8475F010A4FFAEF0E52475F00AC2
:10031A00847C00EF25F0FDEC3EFC7F8212066EE540
:10032A002575F00A8475F010A4FFAEF0E52575F086
:10033A000A847C00EF25F0FDEC3EFC7F8012066EFD
:10034A00E52675F00A8475F010A4FFAEF0E526756F
:10035A00F00A847C00EF25F0FDEC3EFC7F8A120651
:09036A006EE4FDFC7F8E02066EBC
:100407007F8C1206C5EFC4540F75F00AA4FEEF5493
:100417000F2EF5207F881206C5EFC4540F75F00A1A
:10042700A4FEEF540F2EF5217F861206C5EFC454A4
:100437000F75F00AA4FEEF540F2EF5227F841206E3
:10044700C5EFC4540F75F00AA4FEEF540F2EF52321
:100457007F821206C5EFC4540F75F00AA4FEEF544D
:100467000F2EF5247F801206C5EFC4540F75F00ACE
:10047700A4FEEF540F2EF5257F8A1206C5EFC4544C
:0C0487000F75F00AA4FEEF540F2EF526AE
:010493002246
:0608F400C2A58F80D2A70F
:0808FA007F027EEFDEFEDFFC51
:0109020022D2
:0A090300C2A61208F4C2A70208FA07
:10084D00CFCDCFCECCCE1203B27C007D0A1203B237
:04085D00ED2430FF57
:0A086100D2A61208F4C2A70208FA9A
:10089F00AE07BE0104ED148006BE0209ED243F44ED
:0608AF0080FF1209032284
:1008E0007F381209037F0C1209037F061209037F68
:0408F00001020903F5
:0A090D00AC0312089FAF040208615A
:06082A008B088A09890A0F
:1008300012089FE4FDAB08AA09A90A8D82758300FE
:0C084000120373FF60061208610D80E9CE
:01084C002289
:0C07F7007F0AEA24FFFDE434FFFC7E00D2
:080803008E0D8F0E8C0F8D107D
:10080B007F017E00E4FBEBC39510E50F6480F87469
:0E081B008098500AAC0DAD0E1203A00B80E8C1
:0108290022AC
:04086B008A0A8B0B5F
:10086F0012089FAA0CEAD39400400D1207F7AC0AA6
:08087F00AD0B12084D1A80EDCB
:01088700224E
:1007130012089FC3EA64809480400B7F2B12086108
:100723008A1E8B1F800E7F2D120861C3E49BF51F69
:10073300E49AF51EAA1DEAD39400400D1207F7AC04
:090743001EAD1F12084D1A80EDD5
:01074C00228A
:04074D008A288B2942
:1007510012089FAA2AEAD3940040297F101207F9B0
:10076100AC28AD29CFCDCFCECCCE1203B2EF540FF2
:10077100FEC3940AEE5004243080022437FF12088D
:04078100611A80D1A8
:010785002251
:0407BF008A2D8B2EC6
:1007C30012089FAA2FEAD394004028EA24FFFDE4ED
:1007D30034FFFC7F027E00120803AC2DAD2ECFCD7B
:1007E300CFCECCCE1203B2EF54012430FF120861F6
:0307F3001A80D297
:0107F60022E0
:1008CB00EF1FAC0670011E4C600A7D027CEFDCFE54
:0408DB00DDFC80ECD4
:0108DF0022F6
:05092000E4AF32F532E6
:0109250022AF
:1008B500E4FF20B1010F20B0027F0220B2027F03C6
:0508C50020B3027F04D6
:0108CA00220B
:100786008530311208B58F30E531B40107E5307098
:1007960003753201E531B40207E5307003753202A4
:1007A600E531B40307E5307003753203E531B4046F
:0807B60007E530700375320401
:0107BE002218
:100888005389F0438901758A18758CFCC28DD28C06
:07089800D2A9D2AFC2B922C0
:0300000002049463
:0C049400787FE4F6D8FD7581320204DBAD
:10037300BB010CE58229F582E5833AF583E022503F
:1003830006E92582F8E622BBFE06E92582F8E22289
:0D039300E58229F582E5833AF583E49322A3
:1003A000EF8DF0A4A8F0CF8CF0A428CE8DF0A42E71
:0203B000FE222B
:1003B200BC000BBE0029EF8DF084FFADF022E4CC2F
:1003C200F875F008EF2FFFEE33FEEC33FCEE9DECF8
:1003D200984005FCEE9DFE0FD5F0E9E4CEFD22ED3E
:1003E200F8F5F0EE8420D21CFEADF075F008EF2F88
:1003F200FFED33FD4007985006D5F0F222C398FD79
:050402000FD5F0EA2215
:1004A000020599E493A3F8E493A34003F68001F2D4
:1004B00008DFF48029E493A3F85407240CC8C3335D
:1004C000C4540F4420C8834004F456800146F6DF2C
:1004D000E4800B0102040810204080900917E47E9C
:1004E000019360BCA3FF543F30E509541FFEE49321
:1004F000A360010ECF54C025E060A840B8E493A3E8
:10050000FAE493A3F8E493A3C8C582C8CAC583CA12
:10051000F0A3C8C582C8CAC583CADFE9DEE780BECA
:01091F0000D7
:00000001FF
